{
  "_format": "hh-sol-artifact-1",
  "contractName": "DappVotes",
  "sourceName": "contracts/src/DappVote.sol",
  "abi": [
    {
      "anonymous": false,
      "inputs": [
        {
          "indexed": true,
          "internalType": "address",
          "name": "voter",
          "type": "address"
        },
        {
          "indexed": false,
          "internalType": "uint256",
          "name": "timestamp",
          "type": "uint256"
        }
      ],
      "name": "Voted",
      "type": "event"
    },
    {
      "inputs": [
        {
          "internalType": "uint256",
          "name": "_pollId",
          "type": "uint256"
        },
        {
          "internalType": "string",
          "name": "_name",
          "type": "string"
        },
        {
          "internalType": "string",
          "name": "_avatar",
          "type": "string"
        }
      ],
      "name": "contest",
      "outputs": [],
      "stateMutability": "nonpayable",
      "type": "function"
    },
    {
      "inputs": [
        {
          "internalType": "string",
          "name": "_image",
          "type": "string"
        },
        {
          "internalType": "string",
          "name": "_title",
          "type": "string"
        },
        {
          "internalType": "string",
          "name": "_description",
          "type": "string"
        },
        {
          "internalType": "uint256",
          "name": "_startsAt",
          "type": "uint256"
        },
        {
          "internalType": "uint256",
          "name": "_endsAt",
          "type": "uint256"
        }
      ],
      "name": "createPoll",
      "outputs": [],
      "stateMutability": "nonpayable",
      "type": "function"
    },
    {
      "inputs": [
        {
          "internalType": "uint256",
          "name": "_pollId",
          "type": "uint256"
        }
      ],
      "name": "deletePoll",
      "outputs": [],
      "stateMutability": "nonpayable",
      "type": "function"
    },
    {
      "inputs": [
        {
          "internalType": "uint256",
          "name": "_pollId",
          "type": "uint256"
        },
        {
          "internalType": "uint256",
          "name": "_contestantId",
          "type": "uint256"
        }
      ],
      "name": "getContestant",
      "outputs": [
        {
          "components": [
            {
              "internalType": "uint256",
              "name": "id",
              "type": "uint256"
            },
            {
              "internalType": "string",
              "name": "image",
              "type": "string"
            },
            {
              "internalType": "string",
              "name": "name",
              "type": "string"
            },
            {
              "internalType": "address",
              "name": "voter",
              "type": "address"
            },
            {
              "internalType": "uint256",
              "name": "votes",
              "type": "uint256"
            },
            {
              "internalType": "address[]",
              "name": "voters",
              "type": "address[]"
            }
          ],
          "internalType": "struct DappVotes.ContestantStruct",
          "name": "",
          "type": "tuple"
        }
      ],
      "stateMutability": "view",
      "type": "function"
    },
    {
      "inputs": [
        {
          "internalType": "uint256",
          "name": "_pollId",
          "type": "uint256"
        }
      ],
      "name": "getContestants",
      "outputs": [
        {
          "components": [
            {
              "internalType": "uint256",
              "name": "id",
              "type": "uint256"
            },
            {
              "internalType": "string",
              "name": "image",
              "type": "string"
            },
            {
              "internalType": "string",
              "name": "name",
              "type": "string"
            },
            {
              "internalType": "address",
              "name": "voter",
              "type": "address"
            },
            {
              "internalType": "uint256",
              "name": "votes",
              "type": "uint256"
            },
            {
              "internalType": "address[]",
              "name": "voters",
              "type": "address[]"
            }
          ],
          "internalType": "struct DappVotes.ContestantStruct[]",
          "name": "",
          "type": "tuple[]"
        }
      ],
      "stateMutability": "view",
      "type": "function"
    },
    {
      "inputs": [
        {
          "internalType": "uint256",
          "name": "_pollId",
          "type": "uint256"
        }
      ],
      "name": "getPoll",
      "outputs": [
        {
          "components": [
            {
              "internalType": "uint256",
              "name": "id",
              "type": "uint256"
            },
            {
              "internalType": "string",
              "name": "image",
              "type": "string"
            },
            {
              "internalType": "string",
              "name": "title",
              "type": "string"
            },
            {
              "internalType": "string",
              "name": "description",
              "type": "string"
            },
            {
              "internalType": "uint256",
              "name": "votes",
              "type": "uint256"
            },
            {
              "internalType": "uint256",
              "name": "contestants",
              "type": "uint256"
            },
            {
              "internalType": "bool",
              "name": "deleted",
              "type": "bool"
            },
            {
              "internalType": "address",
              "name": "director",
              "type": "address"
            },
            {
              "internalType": "uint256",
              "name": "startsAt",
              "type": "uint256"
            },
            {
              "internalType": "uint256",
              "name": "endsAt",
              "type": "uint256"
            },
            {
              "internalType": "uint256",
              "name": "timestamp",
              "type": "uint256"
            },
            {
              "internalType": "address[]",
              "name": "voters",
              "type": "address[]"
            },
            {
              "internalType": "string[]",
              "name": "avatars",
              "type": "string[]"
            }
          ],
          "internalType": "struct DappVotes.PollStruct",
          "name": "",
          "type": "tuple"
        }
      ],
      "stateMutability": "view",
      "type": "function"
    },
    {
      "inputs": [],
      "name": "getPolls",
      "outputs": [
        {
          "components": [
            {
              "internalType": "uint256",
              "name": "id",
              "type": "uint256"
            },
            {
              "internalType": "string",
              "name": "image",
              "type": "string"
            },
            {
              "internalType": "string",
              "name": "title",
              "type": "string"
            },
            {
              "internalType": "string",
              "name": "description",
              "type": "string"
            },
            {
              "internalType": "uint256",
              "name": "votes",
              "type": "uint256"
            },
            {
              "internalType": "uint256",
              "name": "contestants",
              "type": "uint256"
            },
            {
              "internalType": "bool",
              "name": "deleted",
              "type": "bool"
            },
            {
              "internalType": "address",
              "name": "director",
              "type": "address"
            },
            {
              "internalType": "uint256",
              "name": "startsAt",
              "type": "uint256"
            },
            {
              "internalType": "uint256",
              "name": "endsAt",
              "type": "uint256"
            },
            {
              "internalType": "uint256",
              "name": "timestamp",
              "type": "uint256"
            },
            {
              "internalType": "address[]",
              "name": "voters",
              "type": "address[]"
            },
            {
              "internalType": "string[]",
              "name": "avatars",
              "type": "string[]"
            }
          ],
          "internalType": "struct DappVotes.PollStruct[]",
          "name": "",
          "type": "tuple[]"
        }
      ],
      "stateMutability": "view",
      "type": "function"
    },
    {
      "inputs": [
        {
          "internalType": "uint256",
          "name": "_pollId",
          "type": "uint256"
        },
        {
          "internalType": "string",
          "name": "_image",
          "type": "string"
        },
        {
          "internalType": "string",
          "name": "_title",
          "type": "string"
        },
        {
          "internalType": "string",
          "name": "_description",
          "type": "string"
        },
        {
          "internalType": "uint256",
          "name": "_startsAt",
          "type": "uint256"
        },
        {
          "internalType": "uint256",
          "name": "_endsAt",
          "type": "uint256"
        }
      ],
      "name": "updatePoll",
      "outputs": [],
      "stateMutability": "nonpayable",
      "type": "function"
    },
    {
      "inputs": [
        {
          "internalType": "uint256",
          "name": "_pollId",
          "type": "uint256"
        },
        {
          "internalType": "uint256",
          "name": "_contestantId",
          "type": "uint256"
        }
      ],
      "name": "vote",
      "outputs": [],
      "stateMutability": "nonpayable",
      "type": "function"
    }
  ],
  "bytecode": "0x608060405234801561001057600080fd5b50611db7806100206000396000f3fe608060405234801561001057600080fd5b50600436106100935760003560e01c806366dd51dc1161006657806366dd51dc146100fe578063b384abef14610111578063cee9dc4514610124578063d343641114610144578063f0d0bc451461016457600080fd5b8063029433f014610098578063120fe89b146100ad5780631a8cbcaa146100cb5780631f35b51d146100eb575b600080fd5b6100ab6100a63660046116bd565b610177565b005b6100b561026f565b6040516100c2919061193c565b60405180910390f35b6100de6100d936600461199e565b6106fc565b6040516100c291906119b7565b6100ab6100f936600461199e565b610ab1565b6100ab61010c3660046119d1565b610b70565b6100ab61011f366004611a3e565b610d00565b61013761013236600461199e565b610eec565b6040516100c29190611ad7565b610157610152366004611a3e565b6111f2565b6040516100c29190611b2c565b6100ab610172366004611b3f565b61141d565b600086815260026020526040902054869060ff166101b05760405162461bcd60e51b81526004016101a790611bd9565b60405180910390fd5b6000878152600360205260409020600681015461010090046001600160a01b0316331461022d5760405162461bcd60e51b815260206004820152602560248201527f4f6e6c7920746865206469726563746f722063616e2075706461746520746865604482015264081c1bdb1b60da1b60648201526084016101a7565b6001810161023b8882611c84565b506002810161024a8782611c84565b50600381016102598682611c84565b5060078101939093555060089091015550505050565b6060600061027c60005490565b9050600060015b8281116102c35760008181526003602052604090206006015460ff166102b157816102ad81611d44565b9250505b806102bb81611d44565b915050610283565b5060008167ffffffffffffffff8111156102df576102df61161a565b60405190808252806020026020018201604052801561031857816020015b610305611568565b8152602001906001900390816102fd5790505b509050600060015b8481116106f25760008181526003602052604090206006015460ff166106e05760036000828152602001908152602001600020604051806101a00160405290816000820154815260200160018201805461037990611c01565b80601f01602080910402602001604051908101604052809291908181526020018280546103a590611c01565b80156103f25780601f106103c7576101008083540402835291602001916103f2565b820191906000526020600020905b8154815290600101906020018083116103d557829003601f168201915b5050505050815260200160028201805461040b90611c01565b80601f016020809104026020016040519081016040528092919081815260200182805461043790611c01565b80156104845780601f1061045957610100808354040283529160200191610484565b820191906000526020600020905b81548152906001019060200180831161046757829003601f168201915b5050505050815260200160038201805461049d90611c01565b80601f01602080910402602001604051908101604052809291908181526020018280546104c990611c01565b80156105165780601f106104eb57610100808354040283529160200191610516565b820191906000526020600020905b8154815290600101906020018083116104f957829003601f168201915b505050918352505060048201546020808301919091526005830154604080840191909152600684015460ff8116151560608501526001600160a01b0361010091829004166080850152600785015460a0850152600885015460c0850152600985015460e0850152600a85018054835181860281018601909452808452919094019391928301828280156105d257602002820191906000526020600020905b81546001600160a01b031681526001909101906020018083116105b4575b50505050508152602001600b8201805480602002602001604051908101604052809291908181526020016000905b828210156106ac57838290600052602060002001805461061f90611c01565b80601f016020809104026020016040519081016040528092919081815260200182805461064b90611c01565b80156106985780601f1061066d57610100808354040283529160200191610698565b820191906000526020600020905b81548152906001019060200180831161067b57829003601f168201915b505050505081526020019060010190610600565b50505050815250508383815181106106c6576106c6611d6b565b602002602001018190525081806106dc90611d44565b9250505b806106ea81611d44565b915050610320565b5090949350505050565b610704611568565b600082815260026020526040902054829060ff166107345760405162461bcd60e51b81526004016101a790611bd9565b60036000848152602001908152602001600020604051806101a00160405290816000820154815260200160018201805461076d90611c01565b80601f016020809104026020016040519081016040528092919081815260200182805461079990611c01565b80156107e65780601f106107bb576101008083540402835291602001916107e6565b820191906000526020600020905b8154815290600101906020018083116107c957829003601f168201915b505050505081526020016002820180546107ff90611c01565b80601f016020809104026020016040519081016040528092919081815260200182805461082b90611c01565b80156108785780601f1061084d57610100808354040283529160200191610878565b820191906000526020600020905b81548152906001019060200180831161085b57829003601f168201915b5050505050815260200160038201805461089190611c01565b80601f01602080910402602001604051908101604052809291908181526020018280546108bd90611c01565b801561090a5780601f106108df5761010080835404028352916020019161090a565b820191906000526020600020905b8154815290600101906020018083116108ed57829003601f168201915b505050918352505060048201546020808301919091526005830154604080840191909152600684015460ff8116151560608501526001600160a01b0361010091829004166080850152600785015460a0850152600885015460c0850152600985015460e0850152600a85018054835181860281018601909452808452919094019391928301828280156109c657602002820191906000526020600020905b81546001600160a01b031681526001909101906020018083116109a8575b50505050508152602001600b8201805480602002602001604051908101604052809291908181526020016000905b82821015610aa0578382906000526020600020018054610a1390611c01565b80601f0160208091040260200160405190810160405280929190818152602001828054610a3f90611c01565b8015610a8c5780601f10610a6157610100808354040283529160200191610a8c565b820191906000526020600020905b815481529060010190602001808311610a6f57829003601f168201915b5050505050815260200190600101906109f4565b505050508152505091505b50919050565b600081815260026020526040902054819060ff16610ae15760405162461bcd60e51b81526004016101a790611bd9565b6000828152600360205260409020600681015461010090046001600160a01b03163314610b5e5760405162461bcd60e51b815260206004820152602560248201527f4f6e6c7920746865206469726563746f722063616e2064656c65746520746865604482015264081c1bdb1b60da1b60648201526084016101a7565b600601805460ff191660011790555050565b600083815260026020526040902054839060ff16610ba05760405162461bcd60e51b81526004016101a790611bd9565b6000835111610be85760405162461bcd60e51b81526020600482015260146024820152734e616d652063616e6e6f7420626520656d70747960601b60448201526064016101a7565b600084815260056020908152604080832033845290915290205460ff1615610c465760405162461bcd60e51b8152602060048201526011602482015270105b1c9958591e4818dbdb9d195cdd1959607a1b60448201526064016101a7565b610c54600180546001019055565b6000610c5f60015490565b6000868152600660209081526040808320848452909152902081815590915060028101610c8c8682611c84565b5060018101610c9b8582611c84565b50600380820180546001600160a01b03191633179055600087815260209190915260408120600501805491610ccf83611d44565b90915550505060009485525050600560209081526040808520338652909152909220805460ff191660011790555050565b600082815260026020526040902054829060ff16610d305760405162461bcd60e51b81526004016101a790611bd9565b600083815260046020908152604080832033845290915290205460ff1615610d8a5760405162461bcd60e51b815260206004820152600d60248201526c105b1c9958591e481d9bdd1959609a1b60448201526064016101a7565b6000838152600360205260409020600801544210610de25760405162461bcd60e51b8152602060048201526015602482015274506f6c6c696e67206e6f7420617661696c61626c6560581b60448201526064016101a7565b6000838152600360205260408120600401805491610dff83611d44565b90915550506000838152600360209081526040808320600a018054600181810183559185528385200180546001600160a01b031916339081179091558785526004808552838620918652908452828520805460ff191690921790915586845260068352818420868552909252822090810180549192610e7d83611d44565b9091555050600581018054600181018255600091825260209091200180546001600160a01b031916339081179091556040517f4d99b957a2bc29a30ebd96a7be8e68fe50a3c701db28a91436490b7d53870ca490610ede9042815260200190565b60405180910390a250505050565b600081815260026020526040902054606090829060ff16610f1f5760405162461bcd60e51b81526004016101a790611bd9565b6000610f2a60015490565b6000858152600360205260408120600501549192509067ffffffffffffffff811115610f5857610f5861161a565b604051908082528060200260200182016040528015610f9157816020015b610f7e6115db565b815260200190600190039081610f765790505b509050600060015b8381116111e7576000878152600660209081526040808320848452909152902054156111d5576000878152600660209081526040808320848452825291829020825160c08101909352805483526001810180549192840191610ffa90611c01565b80601f016020809104026020016040519081016040528092919081815260200182805461102690611c01565b80156110735780601f1061104857610100808354040283529160200191611073565b820191906000526020600020905b81548152906001019060200180831161105657829003601f168201915b5050505050815260200160028201805461108c90611c01565b80601f01602080910402602001604051908101604052809291908181526020018280546110b890611c01565b80156111055780601f106110da57610100808354040283529160200191611105565b820191906000526020600020905b8154815290600101906020018083116110e857829003601f168201915b505050505081526020016003820160009054906101000a90046001600160a01b03166001600160a01b03166001600160a01b0316815260200160048201548152602001600582018054806020026020016040519081016040528092919081815260200182805480156111a057602002820191906000526020600020905b81546001600160a01b03168152600190910190602001808311611182575b5050505050815250508383815181106111bb576111bb611d6b565b602002602001018190525081806111d190611d44565b9250505b806111df81611d44565b915050610f99565b509095945050505050565b6111fa6115db565b600083815260026020526040902054839060ff1661122a5760405162461bcd60e51b81526004016101a790611bd9565b6000848152600660209081526040808320868452825291829020825160c0810190935280548352600181018054919284019161126590611c01565b80601f016020809104026020016040519081016040528092919081815260200182805461129190611c01565b80156112de5780601f106112b3576101008083540402835291602001916112de565b820191906000526020600020905b8154815290600101906020018083116112c157829003601f168201915b505050505081526020016002820180546112f790611c01565b80601f016020809104026020016040519081016040528092919081815260200182805461132390611c01565b80156113705780601f1061134557610100808354040283529160200191611370565b820191906000526020600020905b81548152906001019060200180831161135357829003601f168201915b505050505081526020016003820160009054906101000a90046001600160a01b03166001600160a01b03166001600160a01b03168152602001600482015481526020016005820180548060200260200160405190810160405280929190818152602001828054801561140b57602002820191906000526020600020905b81546001600160a01b031681526001909101906020018083116113ed575b50505050508152505091505092915050565b600085511161146e5760405162461bcd60e51b815260206004820152601960248201527f496d6167652055524c2063616e6e6f7420626520656d7074790000000000000060448201526064016101a7565b600082116114c85760405162461bcd60e51b815260206004820152602160248201527f53746172742064617465206d7573742062652067726561746572207468616e206044820152600360fc1b60648201526084016101a7565b6114d6600080546001019055565b6000805480825260036020526040909120818155600181016114f88882611c84565b50600281016115078782611c84565b50600381016115168682611c84565b5060078101939093556008830191909155600682018054610100600160a81b0319163361010002179055426009909201919091556000908152600260205260409020805460ff19166001179055505050565b604051806101a0016040528060008152602001606081526020016060815260200160608152602001600081526020016000815260200160001515815260200160006001600160a01b0316815260200160008152602001600081526020016000815260200160608152602001606081525090565b6040518060c0016040528060008152602001606081526020016060815260200160006001600160a01b0316815260200160008152602001606081525090565b634e487b7160e01b600052604160045260246000fd5b600082601f83011261164157600080fd5b813567ffffffffffffffff8082111561165c5761165c61161a565b604051601f8301601f19908116603f011681019082821181831017156116845761168461161a565b8160405283815286602085880101111561169d57600080fd5b836020870160208301376000602085830101528094505050505092915050565b60008060008060008060c087890312156116d657600080fd5b86359550602087013567ffffffffffffffff808211156116f557600080fd5b6117018a838b01611630565b9650604089013591508082111561171757600080fd5b6117238a838b01611630565b9550606089013591508082111561173957600080fd5b5061174689828a01611630565b9350506080870135915060a087013590509295509295509295565b6000815180845260005b818110156117875760208185018101518683018201520161176b565b506000602082860101526020601f19601f83011685010191505092915050565b600081518084526020808501945080840160005b838110156117e05781516001600160a01b0316875295820195908201906001016117bb565b509495945050505050565b600082825180855260208086019550808260051b84010181860160005b8481101561183657601f19868403018952611824838351611761565b98840198925090830190600101611808565b5090979650505050505050565b60006101a082518452602083015181602086015261186382860182611761565b9150506040830151848203604086015261187d8282611761565b915050606083015184820360608601526118978282611761565b9150506080830151608085015260a083015160a085015260c08301516118c160c086018215159052565b5060e08301516118dc60e08601826001600160a01b03169052565b50610100838101519085015261012080840151908501526101408084015190850152610160808401518583038287015261191683826117a7565b92505050610180808401518583038287015261193283826117eb565b9695505050505050565b6000602080830181845280855180835260408601915060408160051b870101925083870160005b8281101561199157603f1988860301845261197f858351611843565b94509285019290850190600101611963565b5092979650505050505050565b6000602082840312156119b057600080fd5b5035919050565b6020815260006119ca6020830184611843565b9392505050565b6000806000606084860312156119e657600080fd5b83359250602084013567ffffffffffffffff80821115611a0557600080fd5b611a1187838801611630565b93506040860135915080821115611a2757600080fd5b50611a3486828701611630565b9150509250925092565b60008060408385031215611a5157600080fd5b50508035926020909101359150565b805182526000602082015160c06020850152611a7f60c0850182611761565b905060408301518482036040860152611a988282611761565b91505060018060a01b0360608401511660608501526080830151608085015260a083015184820360a0860152611ace82826117a7565b95945050505050565b6000602080830181845280855180835260408601915060408160051b870101925083870160005b8281101561199157603f19888603018452611b1a858351611a60565b94509285019290850190600101611afe565b6020815260006119ca6020830184611a60565b600080600080600060a08688031215611b5757600080fd5b853567ffffffffffffffff80821115611b6f57600080fd5b611b7b89838a01611630565b96506020880135915080821115611b9157600080fd5b611b9d89838a01611630565b95506040880135915080821115611bb357600080fd5b50611bc088828901611630565b9598949750949560608101359550608001359392505050565b6020808252600e908201526d141bdb1b081b9bdd08199bdd5b9960921b604082015260600190565b600181811c90821680611c1557607f821691505b602082108103610aab57634e487b7160e01b600052602260045260246000fd5b601f821115611c7f57600081815260208120601f850160051c81016020861015611c5c5750805b601f850160051c820191505b81811015611c7b57828155600101611c68565b5050505b505050565b815167ffffffffffffffff811115611c9e57611c9e61161a565b611cb281611cac8454611c01565b84611c35565b602080601f831160018114611ce75760008415611ccf5750858301515b600019600386901b1c1916600185901b178555611c7b565b600085815260208120601f198616915b82811015611d1657888601518255948401946001909101908401611cf7565b5085821015611d345787850151600019600388901b60f8161c191681555b5050505050600190811b01905550565b600060018201611d6457634e487b7160e01b600052601160045260246000fd5b5060010190565b634e487b7160e01b600052603260045260246000fdfea264697066735822122043305c3fcf78f5be9210544f487a13a10758ab504c45d7e44b1b3163a07c985464736f6c63430008110033",
  "linkReferences": {},
  "deployedLinkReferences": {}
}